:020000040800F2
:10000000880B002089010008E1270008E327000889
:10001000E7270008EB270008EF2700080000000092
:10002000000000000000000000000000F3270008AE
:10003000F527000800000000F7270008F92700084E
:10004000A3010008A3010008A3010008A301000800
:10005000A3010008A3010008A3010008A3010008F0
:10006000A3010008A3010008A3010008A3010008E0
:10007000A3010008A3010008A3010008A3010008D0
:10008000A3010008A3010008A3010008A3010008C0
:10009000A3010008A3010008A3010008A3010008B0
:1000A000A3010008A3010008A3010008A3010008A0
:1000B000BF3000080D260008A3010008A3010008B6
:1000C000A3010008A3010008A3010008A301000880
:1000D000A3010008C52A0008F5450008C74200082A
:1000E000A3010008A3010008A301000800F002F822
:1000F00000F03AF80AA090E8000C82448344AAF188
:100100000107DA4501D100F02FF8AFF2090EBAE885
:100110000F0013F0010F18BFFB1A43F0010318473B
:10012000AC490000CC490000103A24BF78C878C11F
:10013000FAD8520724BF30C830C144BF04680C60ED
:10014000704700000023002400250026103A28BF35
:1001500078C1FBD8520728BF30C148BF0B60704739
:100160001FB51FBD10B510BD04F0A3FA1146FFF76F
:10017000F7FF02F0D5F804F0C1FA03B4FFF7F2FF7D
:1001800003BC04F0C5FA000009488047094800474D
:10019000FEE7FEE7FEE7FEE7FEE7FEE7FEE7FEE737
:1001A000FEE7FEE704480549054A064B7047000094
:1001B000D9280008ED00000888050020880B0020E1
:1001C000880700208807002031490143314A116027
:1001D000704770B5002100230F22C4780CB32D4C5A
:1001E000246804F4E064C4F5E064210AC1F1040366
:1001F000CA40447804FA03F1847814402143090189
:10020000254C0678A155047804F01F050124AC4064
:1002100005786D114FF0E02606EB8505C5F8004125
:1002200009E0047804F01F050124AC401B4D06785A
:10023000761145F8264070BD194A0A400243154B15
:100240001B1F1A60704739B1124A121D126802430F
:10025000104B1B1D1A6006E00E4A121D12688243E5
:100260000C4B1B1D1A607047042808D14FF0E02189
:10027000096941F004014FF0E022116107E04FF0FD
:10028000E021096921F004014FF0E022116170477B
:100290000000FA050CED00E000E400E080E100E081
:1002A00080FFFF1F10B50446FA48844208D101219F
:1002B000401500F04FFD0021601500F04BFD17E0E8
:1002C000F548844208D10121001500F043FD0021CA
:1002D000201500F03FFD0BE0F048844208D10121D9
:1002E000C80300F037FD00214FF4004000F032FD5C
:1002F00010BD30B50246002000235068E84C204075
:100300000D790C6844EA0524204350609068E54C60
:100310002040D1E902542C434D7944EA450420435E
:100320009060D06A20F470000C7C641EE4B2234319
:1003300040EA0350D06230BD00210160017141717B
:100340008160C16001210174704721B1826842F06F
:100350000102826003E0826822F00102826070473D
:1003600021B1826842F48072826003E0826822F4E4
:1003700080728260704710B50023CBB21AB1446816
:100380001C43446002E044689C43446010BD8168A3
:1003900041F0080181607047014600208A6812F030
:1003A000080F01D0012000E000207047816841F073
:1003B000040181607047014600208A6812F0040F32
:1003C00001D0012000E00020704721B1826842F492
:1003D000A002826003E0826822F4A002826070477B
:1003E000014600208A6812F4800F01D0012000E04D
:1003F0000020704710B50A4600210023416821F40F
:100400006041531E41EA4331416010BD21B1426851
:1004100042F40062426003E0426822F400624260FB
:100420007047F0B504460D4600200021092D11DD6E
:10043000E068A5F10A0606EB4607072606FA07F16B
:100440008843A5F10A0606EB460603FA06F10843BF
:10045000E0600CE0206905EB4507072606FA07F186
:10046000884305EB450603FA06F108432061072A95
:100470000FDA606B561E06EB86071F2606FA07F199
:100480008843561E06EB860605FA06F108436063AC
:1004900022E00D2A0FDA206BD61F06EB86071F26F7
:1004A00006FA07F18843D61F06EB860605FA06F121
:1004B0000843206310E0E06AA2F10D0606EB860710
:1004C0001F2606FA07F18843A2F10D0606EB860601
:1004D00005FA06F10843E062F0BD21B1826842F4FA
:1004E0008012826003E0826822F48012826070478A
:1004F0000146C86C80B2704766484C30006870474F
:1005000021B1426842F48062426003E0426822F412
:1005100080624260704721B1426842F4805242607A
:1005200003E0426822F48052426070470A4600218C
:10053000816821F4E04111438160704721B18268F4
:1005400042F40042826003E0826822F4004282604A
:10055000704721B1826842F40212826003E082682F
:1005600022F4021282607047014600208A6812F469
:10057000001F01D0012000E000207047F0B50446C4
:100580001546002000220026092911DDE068A1F1AE
:100590000A0707EB470C072707FA0CF29043A1F173
:1005A0000A0707EB470703FA07F21043E0600CE085
:1005B000206901EB410C072707FA0CF2904301EB8D
:1005C000410703FA07F210432061A06BC0F3015604
:1005D000EF1C06F1010CA7EB0C0707EB870C1F279C
:1005E00007FA0CF29043EF1C06F1010CA7EB0C0785
:1005F00007EB870701FA07F21043A063F0BD10B5BF
:100600000A4600210023816B21F44011531E41EA68
:100610000351816310BD08B5002300930090009B37
:100620000B440093009B1A6008BD08B502460020E9
:100630000090009201F12800009B1844009000985F
:10064000006880B208BD0A4600214168164B194077
:100650001143416070474162826270470A4600213F
:10066000416821F01F0111434160704740B10949C1
:100670000831096841F40001064A0832116007E0B8
:1006800004490831096821F40001024A0832116066
:10069000704700000024014000280140003C014058
:1006A000FFFEF0FFFDF7F1FFFFFD3FFF02460020D8
:1006B00013680B4201D0012000E000207047CA43BC
:1006C0000260704770B502460020002300240B1220
:1006D0005568CEB205EA060415681D4202D00CB179
:1006E000012000E0002070BD00220A12D343036005
:1006F0007047000010B50446CA48844208D1012161
:10070000042000F027FB0021042000F023FB46E03A
:10071000C548844208D10121082000F01BFB0021BC
:10072000082000F017FB3AE0C048844208D10121BC
:10073000102000F00FFB0021102000F00BFB2EE03A
:10074000BB48844208D10121202000F003FB002196
:10075000202000F0FFFA22E0B648844208D10121AF
:10076000402000F0F7FA0021402000F0F3FA16E0F4
:10077000B148844208D10121802000F0EBFA002129
:10078000802000F0E7FA0AE0AC48844207D101215A
:10079000801500F0DFFA0021A01500F0DBFA10BD93
:1007A00010B50121084600F0D5FA0021012000F023
:1007B000D1FA10BD2DE9F0410246002500260020A7
:1007C00000230024002791F803C00CF00F0591F8D6
:1007D00003C01CF0100F03D091F802C04CEA0505CD
:1007E00091F800C0BCF1000F31D0146800202BE05C
:1007F0004FF0010C0CFA00F3B1F800C00CEA03064C
:100800009E4220D183004FF00F0C0CFA03F7BC433B
:1008100005FA03FC4CEA040491F803C0BCF1280F6C
:1008200006D14FF0010C0CFA00FCC2F814C00AE02B
:1008300091F803C0BCF1480F05D14FF0010C0CFA40
:1008400000FCC2F810C0401C0828D1D31460B1F8D5
:1008500000C0BCF1FF0F34DD546800202EE000F131
:10086000080C4FF0010808FA0CF3B1F800C00CEACC
:1008700003069E4221D183004FF00F0C0CFA03F7C0
:10088000BC4305FA03FC4CEA040491F803C0BCF134
:10089000280F05D100F1080C08FA0CF8C2F81480F2
:1008A00091F803C0BCF1480F07D100F1080C4FF0DC
:1008B000010808FA0CF8C2F81080401C0828CED3B2
:1008C0005460BDE8F0814FF6FF7101800221817014
:1008D0000421C17070470246002093680B4201D08A
:1008E000012000E0002070470146886880B2704710
:1008F00002460020D3680B4201D0012000E0002016
:1009000070470146C86880B2704701617047416115
:1009100070470AB1016100E041617047C1607047F2
:100920004FF480320A438261816182618269826907
:10093000704702460020424B18684FF680731840FB
:1009400040EA021008433E4B186070473D49C861B9
:100950007047F0B50A46002300240021002500F06E
:100960000046B6F1004F02D1354EF16901E0344E38
:100970007168C0F3034583B200F44016B6F5401F1A
:1009800008D121F070612E4E766826F070662C4FEB
:100990007E6012E000F48016B6F5801F06D10326B3
:1009A00006FA05F4A14341F0706106E0460D3601F8
:1009B00003FA06F6B14341F0706122B1460D3601EB
:1009C00003FA06F6314300F00046B6F1004F02D1BB
:1009D0001B4EF16101E01A4E7160F0BD30B500228E
:1009E0008B071C0F0F2303FA04F2154B08338C10EE
:1009F00053F824309343124C08348D1044F82530BA
:100A000023468C1053F824308C07240F00FA04F48A
:100A100023430B4C08348D1044F8253030BD0A496F
:100A20000860704700080140000C014000100140C0
:100A30000014014000180140001C0140002001404A
:100A40000000014000002042DC002042DD48006838
:100A500040F00100DB49086008464068DA49084078
:100A6000D849486008460068D8490840D549086018
:100A70000846006820F4802008600846406820F49A
:100A8000FE0048604FF41F0088607047CD49096838
:100A900021F48031CB4A11601146096821F480218C
:100AA0001160B0F5803F03D0B0F5802F0ED106E085
:100AB000C449096841F48031C24A116007E0C14964
:100AC000096841F4A021BF4A116000E000BF00BFE7
:100AD000704710B501460022002300204A11012A68
:100AE00002D1B84C236806E0022A02D1B54C236A31
:100AF00001E0B44C636A01F01F02012494401C42DF
:100B000001D0012000E0002010BD38B50020009089
:100B10000024002500BF3120FFF7DBFF05460098C9
:100B2000401C00900098B0F5A06F01D0002DF2D0CD
:100B30003120FFF7CEFF08B1012400E00024204659
:100B400038BD014600209F4A106820F0F80040EAB6
:100B5000C100106070479E4908607047024600203F
:100B6000984B586820F47C1042EA01031843954BD7
:100B70005860704796490866704701460020914AC0
:100B8000506820F003000843506070478D4840686B
:100B900000F00C007047014600208A4A506820F09F
:100BA000F00008435060704701460020854A5068B5
:100BB00020F4E06008435060704701460020814AFD
:100BC000506820F4605040EAC1005060704729B17D
:100BD0007C4A527A02437B4B5A7204E0794A527A39
:100BE0008243784B5A7270477A49086070470146D1
:100BF0000020744A506820F4404008435060704719
:100C00000021754A11706F4A82F82010012802D025
:100C1000042808D103E001216F4A117004E0052186
:100C20006D4A117000E000BF00BF70476B4908605B
:100C300070476449096A0143624A11627047674913
:100C400044390860704730B5002100220024002399
:100C50005C4D6D6805F00C0121B1042905D008290F
:100C600023D105E05E4D056022E05D4D05601FE08B
:100C7000544D6D6805F47012524D6D6805F4803462
:100C8000022505EB92421CB9564D554305600BE019
:100C90004C4D6D6815F4003F03D0524D554305602F
:100CA00002E04F4D5543056002E04D4D056000BF29
:100CB00000BF444D6D6805F0F00109094A4D6B5CB9
:100CC0000568DD4045603F4D6D6805F4E061090A47
:100CD000454D6B5C4568DD4085603A4D6D6805F4B7
:100CE0006051C90A404D6B5C4568DD40C560354DBB
:100CF0006D6805F44041890B3C4D6B5CC568B5FBE4
:100D0000F3F5056130BD29B12E4A526902432D4BDE
:100D10005A6104E02B4A526982432A4B5A61704758
:100D200029B1284A92690243264B9A6104E0254A78
:100D300092698243234B9A61704729B1214AD26953
:100D40000243204BDA6104E01E4AD26982431D4B04
:100D5000DA61704729B11B4AD2680243194BDA6045
:100D600004E0184AD2688243164BDA60704729B112
:100D7000144A12690243134B1A6104E0114A1269C2
:100D80008243104B1A61704714494039086070471C
:100D90000F49C86470470B49C87170470948406AD9
:100DA00040F0807007494862704701460020054ABC
:100DB00092680A4201D0012000E0002070470149FA
:100DC00088727047001002400000FFF8FFFFF6FE37
:100DD00000004242D80042422010024080044242B9
:100DE00000127A0000093D000000002010000020E1
:100DF00010B50446BE48844208D101218014FFF793
:100E0000A9FF0021A014FFF7A5FF16E0B94884420E
:100E100008D101210014FFF7AAFF00212014FFF7D9
:100E2000A6FF0AE0B448844207D10121C013FFF7AE
:100E30009EFF0021E013FFF79AFF10BD10B50022BE
:100E4000028802F441520B884C8823438C88234348
:100E5000CC8823430C8923434C8923438C89234327
:100E6000CC8923431A430280838B4FF2FF742340C3
:100E700083830B8A038210BD2DE9F04F85B00546B0
:100E80000C464FF0000902274FF000084FF0010B0D
:100E90000026B246A88B4FF240010840A8830220EA
:100EA0002884B5F81C90A068022801D100BF38E062
:100EB000A08810B94FF0010B01E04FF0020B8D48F4
:100EC000854200D100E000BF6846FFF7BCFEDDF8B8
:100ED00000A0E088B0F5007F0AD14FEA1A2000EBAD
:100EE00080004000A168B0FBF1F0401D86B20BE02D
:100EF0004FEA4B10BAFBF0F000EB80004000A16815
:100F0000B0FBF1F0401D86B20A20B6FBF0F606F009
:100F10000108A6EB0800C0F34F074FF6FF7000EA88
:100F20000828022F01DBFF2F02DD02274FF0000807
:100F3000E08840EA080038432884A088A189084353
:100F4000618808432188084340F4006040EA0909A9
:100F5000A5F81C9005B0BDE8F08F0021018041800C
:100F60008180C180018141818181C181072101820C
:100F700070470021018041808180C1800221816011
:100F800000218181704721B1028842F04002028035
:100F900004E002884FF6BF731A400280704721B107
:100FA000828B42F48062828304E0828B4FF6FF33AF
:100FB0001A408283704730B5002400230C110125AC
:100FC000A540ABB21AB185881D43858002E08588B3
:100FD0009D43858030BD1AB183880B43838002E036
:100FE00083888B438380704781817047014688895D
:100FF0007047A1F57E42FF3A04D0028842F4807225
:10100000028004E002884FF6FF631A4002807047B6
:1010100021B1828842F00402828004E082884FF687
:10102000FB731A408280704702884FF2FF731A40A8
:10103000028002880A4302807047018841F480518F
:101040000180704721B1028842F40052028004E01E
:1010500002884DF6FF731A40028070470246002056
:10106000012901D0108B00E0908A70470146088A60
:101070007047B1F5804F04D1028842F4804202806B
:1010800004E002884BF6FF731A4002807047024664
:10109000002013890B4201D0012000E0002070479E
:1010A000CA4302817047F0B50246002000240023A5
:1010B000002501F00F070126BE40B4B20B11012636
:1010C0009E40B3B2968806EA03051689264202D0EE
:1010D0000DB1012000E00020F0BD10B5002201F0AC
:1010E0000F040123A3409AB2D343038110BD000033
:1010F0000030014000380040003C004010B504467C
:10110000FE48844208D10121C014FFF723FE0021CC
:10111000E014FFF71FFEC4E0B4F1804F08D10121B5
:101120000846FFF724FE00210120FFF720FEB8E06B
:10113000F348844208D101210220FFF718FE002164
:101140000220FFF714FEACE0EE48844208D10121F2
:101150000420FFF70CFE00210420FFF708FEA0E0AA
:10116000E948844208D101210820FFF700FE002150
:101170000820FFF7FCFD94E0E448844208D10121F7
:101180001020FFF7F4FD00211020FFF7F0FD88E0AC
:10119000DF48844208D101212020FFF7E8FD00212B
:1011A0002020FFF7E4FD7CE0DA48844208D10121E9
:1011B0004014FFF7CFFD00216014FFF7CBFD70E076
:1011C000D548844209D10121C804FFF7C3FD00219D
:1011D0004FF40020FFF7BEFD63E0D048844209D100
:1011E00001210805FFF7B6FD00214FF48010FFF73D
:1011F000B1FD56E0CA48844209D101214805FFF7F4
:10120000A9FD00214FF40010FFF7A4FD49E0C548F7
:10121000844208D101214020FFF7A9FD0021402090
:10122000FFF7A5FD3DE0C048844208D101218020A0
:10123000FFF79DFD00218020FFF799FD31E0BB48BD
:10124000844208D101218015FFF791FD0021A015EE
:10125000FFF78DFD25E0B648844209D1012108043D
:10126000FFF778FD00214FF48030FFF773FD18E0A1
:10127000B048844209D101214804FFF76BFD0021E9
:101280004FF40030FFF766FD0BE0AB48844208D115
:1012900001218804FFF75EFD00214FF48020FFF755
:1012A00059FD10BD00220288944B98420ED0994BF4
:1012B00098420BD0B0F1804F08D0914B984205D0A6
:1012C000904B984202D0904B984204D14FF68F73C6
:1012D0001A404B881A438D4B984207D08C4B98424A
:1012E00004D04FF6FF431A40CB881A4302808B8804
:1012F00083850B880385814B98420BD0854B9842A0
:1013000008D08B4B984205D08A4B984202D08A4B2A
:10131000984201D10B7A038601238382704770B50E
:10132000002400220023058C4FF6FE76354005840C
:10133000028C8388048B4FF68F752C40B51E2C4091
:101340000D882C43751E2A400D892A434D882A4357
:101350006A4DA8420BD06F4DA84208D0744DA842E8
:1013600005D0744DA84202D0734DA84213D14FF658
:10137000F7752A404D892A434FF6FB752A408D8820
:101380002A434FF6FF652B404FF6FF552B408D89C2
:101390002B43CD892B4383800483CD8885860284AB
:1013A00070BD70B5002400220023058C4FF6EF7647
:1013B00035400584028C8388048B48F6FF752C40E9
:1013C0004FF6FF452C400D884FF6FF7606EA0525BF
:1013D0002C434FF6DF752A400D8906EA05152A438E
:1013E0004D8806EA05152A43444DA84202D0494DCE
:1013F000A8421DD14FF67F752A404D894FF6FF76E2
:1014000006EA05152A434FF6BF752A408D8806EA7D
:1014100005152A434FF6FF352B404FF2FF752B4041
:101420008D8906EA85052B43CD8906EA85052B4380
:1014300083800483CD880587028470BD70B5002445
:1014400000220023058C4FF6FF6635400584028C90
:101450008388848B4FF68F752C404FF6FC752C409B
:101460000D882C434FF6FF552A400D894FF6FF7625
:1014700006EA05252A434D8806EA05252A431F4D1D
:10148000A84202D0234DA8421DD14FF2FF752A4039
:101490004D894FF6FF7606EA05252A434FF6FF35BC
:1014A0002A408D8806EA05252A434EF6FF752B4013
:1014B0004DF6FF752B408D8906EA05152B43CD8926
:1014C00006EA05152B4383808483CD8885870284B3
:1014D00070BD70B5002200230024058C4EF6FF7607
:1014E00035400584038C8488828B48F6FF752A403A
:1014F0004FF6FF452A400D8820E00000002C0140F7
:101500000004004000080040000C004000100040B3
:101510000014004000340140004C014000500140E4
:101520000054014000180040001C00400020004012
:101530000040014000440140004801404FF6FF7662
:1015400006EA05252A434DF6FF752B400D8906EA6C
:1015500005352B434D8806EA05352B43FA4DA84245
:1015600002D0FA4DA84208D14BF6FF752C408D8968
:101570004FF6FF7606EA85152C4384808283CD885A
:10158000A0F84050038470BD828B4FF2FF331A40A5
:101590008283828B4FF6FF7303EA01231A4382830F
:1015A0007047F0B50C461546002200210026078C36
:1015B0004EF6FF7C07EA0C070784828B018C4FF6FE
:1015C000FF7707EA043640F6FF473A404FF6FF77C9
:1015D00007EA05273A434FF6FF7707EA03373A430E
:1015E000D94FB8420ED0D94FB8420BD0B0F1804F8E
:1015F00008D0D74FB84205D0D64FB84202D0D64F08
:10160000B84206D14DF6FF77394046F4805739434A
:1016100005E047F6FF57394044F480573943828349
:101620000184F0BD828B4FF6F3731A408283828B64
:101630000A4382837047F0B50C461546002200210C
:101640000026078C4FF6FF6C07EA0C070784828B95
:10165000018C4FF6FF7707EA04264FF60C773A40E5
:101660004FF6FF7707EA03172F433A43B64FB842C6
:101670000ED0B64FB8420BD0B0F1804F08D0B44F67
:10168000B84205D0B34FB84202D0B34FB84206D1EA
:101690004FF6FF57394046F48077394305E04FF263
:1016A000FF57394044F48077394382830184F0BD89
:1016B000028B4FF2FF331A400283028B4FF6FF7307
:1016C00003EA01231A4302837047F0B50C4615461E
:1016D000002200210026078C4FF6EF7C07EA0C075A
:1016E0000784028B018C4FF6FF7707EA041640F659
:1016F000FF473A404FF6FF7707EA03373A434FF682
:10170000FF7707EA05273A438F4FB8420ED08F4F35
:10171000B8420BD0B0F1804F08D08D4FB84205D001
:101720008C4FB84202D08C4FB84206D14FF6DF77CB
:10173000394046F01007394305E04FF65F773940EE
:1017400044F01007394302830184F0BD028B4FF649
:10175000F3731A400283028B0A4302837047F0B589
:101760000C46154600220021068C4FF6FE773E40BF
:101770000684028B018C4FF60C7632407E1C06EA02
:1017800003162E433243704EB0420ED06F4EB0421D
:101790000BD0B0F1804F08D06D4EB04205D06D4EE9
:1017A000B04202D06C4EB04206D14FF6FD763140C9
:1017B00044F00106314305E04FF6F576314044F040
:1017C0000106314302830184F0BD70B505460C4625
:1017D0005D4885420ED05D4885420BD0B5F1804F03
:1017E00008D05B48854205D05A48854202D05A4805
:1017F000854200D100E000BF208850B92389A2882B
:1018000061882846FFF7ABFFE1882846FFF79EFF77
:1018100025E0208804280AD12389A28861882846E7
:10182000FFF753FFE1882846FFF742FF17E02088C3
:1018300008280AD12389A28861882846FFF7FBFE81
:10184000E1882846FFF7EEFE09E02389A288618837
:101850002846FFF7A6FEE1882846FFF795FE70BDF3
:101860002DE9F04105460C4600260127608808B99D
:10187000022600E00026A088012801D1022700E00E
:1018800001272088A0B92389A28861882846FFF70C
:1018900066FFE1882846FFF759FF23893A4631461B
:1018A0002846FFF712FFE1882846FFF701FF13E003
:1018B0002389A28861882846FFF707FFE188284628
:1018C000FFF7F6FE23893A4631462846FFF747FFE1
:1018D000E1882846FFF73AFFBDE8F0810A884B8887
:1018E0001A438B881A43CB881A430B891A434B89B6
:1018F0001A438B891A43A0F8442070474FF6FF71B2
:10190000818000210180C1804180017270470021E7
:10191000018041808180C180018141818181C181BB
:101920007047002101804180012181800021C18018
:10193000018170470021018041808180C180018147
:101940004181818170470000002C0140003401403A
:101950000004004000080040000C004021B1028853
:1019600042F00102028004E002884FF6FE731A4042
:101970000280704731B1B0F8442042F40042A0F830
:10198000442005E0B0F84420C2F30E02A0F8442041
:1019900070471AB183890B43838102E083898B43AB
:1019A000838170478182704741EA0203A0F8483082
:1019B00070471AB183890B43838102E083898B438B
:1019C0008381704701894FF6F87211400181704799
:1019D0000A46002101894FF68F7319401143018196
:1019E000704730B504460D4629462046FFF7F0FF04
:1019F000208940F00700208130BD2DE9F0410446E8
:101A00000D4616461F46602D06D13B460122314643
:101A10002046FFF75AFE05E03B46012231462046AC
:101A2000FFF79DFE29462046FFF7D2FF208940F0B0
:101A300007002081BDE8F08130B50C460021018906
:101A4000C9B24FF6FF7505EA03251543254329431F
:101A5000018130BD2DE9F04105460E4617469846F6
:101A6000002443463A4631462846FFF7E5FF2C89D5
:101A70004FF6F870044044F007044FF68F700440AE
:101A800044F070042C81BDE8F081F0B504460D46A9
:101A900016461F463B46324629462046FFF7CCFFF6
:101AA000208940F480402081F0BD0185828270470A
:101AB0000A46002101884FF68F73194011430180B7
:101AC0007047F0B50C4615461E4600210022002343
:101AD0000189028B038C4FF6F877394021434FF68A
:101AE000FC473A4040F201173A434FF6DD773B405E
:101AF0004FF6FF7707EA06172F433B430181028326
:101B00000384F0BD0A460021018B4FF68F73194004
:101B10001143018370470A460021018B48F6FF7389
:101B200019404FF6FF7303EA0223194301837047FC
:101B30000A460021818B4FF68F7319401143818330
:101B400070470A460021818B48F6FF7319404FF613
:101B5000FF7303EA022319438183704721B102888E
:101B600042F08002028004E002884FF67F731A4040
:101B70000280704721B1828842F00402828004E032
:101B800082884FF6FB731A408280704721B18288A9
:101B900042F00802828004E082884FF6F7731A4010
:101BA0008280704721B1828842F00102828004E085
:101BB00082884FF6FE731A40828070470A460021E1
:101BC000018B4FF6F77319401143018370470A46A2
:101BD0000021018B4FF2FF7319404FF6FF7303EAA8
:101BE00002231943018370470A460021818B4FF677
:101BF000F77319401143818370470A460021818B96
:101C00004FF2FF7319404FF6FF7303EA02231943A3
:101C1000818370470A460021018B4FF6FB73194000
:101C20001143018370470A460021018B4FF6FF33B1
:101C300019404FF6FF7303EA0223194301837047EB
:101C40000A460021818B4FF6FB73194011438183B3
:101C500070470A460021818B4FF6FF3319404FF63B
:101C6000FF7303EA02231943818370470A46002168
:101C7000018B4FF67F7319401143018370470A4669
:101C80000021018BC1F30E014FF6FF7303EA02231B
:101C90001943018370470A460021818B4FF67F73F9
:101CA00019401143818370470A460021818BC1F39B
:101CB0000E014FF6FF7303EA022319438183704735
:101CC0000A460021018C4FF6FD731940114301842F
:101CD00070470A460021018C4FF6F77319401143F3
:101CE000018470470A460021018C4FF6DF731940CA
:101CF0004FF6FF7303EA02131943018470470A4643
:101D00000021018C4FF67F7319404FF6FF7303EAF1
:101D100002131943018470470A460021018C4FF6D3
:101D2000FF5319404FF6FF7303EA0223194301845E
:101D300070470A460021018C4FF2FF7319404FF69D
:101D4000FF7303EA02231943018470470A46002106
:101D5000018C4DF6FF7319404FF6FF7303EA02330F
:101D600019430184704730B5002301248C40A3B28D
:101D7000048C9C430484048C02FA01F5ADB22C431C
:101D8000048430BD30B5002304248C40A3B2048CFD
:101D90009C430484048C02FA01F5ADB22C43048404
:101DA00030BD70B5034600200024184618300125C8
:101DB0008D40ACB21D8CA5431D8409B1082909D101
:101DC00000EB6100056825F07005056005681543A6
:101DD00005600EE00D1FC5F34E052844056825F487
:101DE000E045056005684FF6FF7606EA02263543B2
:101DF000056070BD21B1028842F00202028004E059
:101E000002884FF6FD731A400280704721B10288A4
:101E100042F00402028004E002884FF6FB731A408D
:101E20000280704721B1828842F08002828004E003
:101E300082884FF67F731A408280704702884FF67F
:101E4000F7731A40028002880A4302807047828832
:101E50004FF68F731A40828082880A4382807047CF
:101E600002894FF6F8731A40028102890A430281FF
:101E7000704702894FF67F731A40028102890A4334
:101E800002817047818470478185704781867047E1
:101E90000187704781877047A0F84010704702881B
:101EA0004FF6FF431A40028002880A4302807047BF
:101EB0000146888E70470146088F70470146888F1B
:101EC00070470146B1F8400070470146888C704762
:101ED0000146088D704702460020138A0B4201D04C
:101EE000012000E000207047CA430282704730B5ED
:101EF0000246002000230024158A05EA0103958983
:101F000005EA010413B10CB1012000E0002030BD4E
:101F1000CA4302827047000010B50446FB48844261
:101F200009D101218803FEF715FF00214FF48040FD
:101F3000FEF710FF32E0F648844209D1012148043F
:101F4000FEF715FF00214FF40030FEF710FF25E0EB
:101F5000F048844209D101218804FEF708FF0021DE
:101F60004FF48020FEF703FF18E0EB48844209D1CC
:101F70000121C804FEF7FBFE00214FF40020FEF70C
:101F8000F6FE0BE0E548844208D101210805FEF782
:101F9000EEFE00214FF48010FEF7E9FE10BD2DE9A2
:101FA000F04786B005460E460024A24600BFA14673
:101FB0000027B08900B100BF2F462C8A4CF6FF7075
:101FC0000440F08804432C82AC894EF6F3100440A0
:101FD000B08831890843718908430443AC81AC8AD5
:101FE0004FF6FF400440B0890443AC8201A8FEF7DD
:101FF0002AFEC648874202D1DDF810A001E0DDF8D4
:102000000CA0A88910F4004F08D00AEBCA0000EB1E
:102010000A1031684900B0FBF1F807E00AEBCA008A
:1020200000EB0A1031688900B0FBF1F86420B8FBBE
:10203000F0F004012009642101FB1089A88910F443
:10204000004F08D0322000EBC900B0FBF1F000F0E7
:102050000700044308E0322000EB09106421B0FBC4
:10206000F1F000F00F0004432C8106B0BDE8F087CA
:102070004FF41651016000218180C18001810C2143
:10208000418100218181704710B502460020108AED
:102090004FF2FF0318400B884C8823438C8823435E
:1020A000CC8823431843108210BD00210180418059
:1020B0008180C180704721B1828942F400528281BF
:1020C00004E082894DF6FF731A4082817047F0B5B3
:1020D00003460024002600250020A1F510676A3F72
:1020E00000D100BF1846C1F3421401F01F060127BA
:1020F00007FA06F5012C01D10C3004E0022C01D1C5
:10210000103000E014301AB107682F43076002E076
:102110000768AF430760F0BD1AB1838A0B4383821F
:1021200002E0838A8B4383827047028A4FF6F07302
:102130001A400282028A0A430282704782894FF261
:10214000FF731A40828182890A438281704721B1DC
:10215000828942F00202828104E082894FF6FD7397
:102160001A4082817047028A4FF6DF731A4002825A
:10217000028A0A430282704721B1028A42F48042F5
:10218000028204E0028A4BF6FF731A400282704713
:10219000C1F308028280704701468888C0F30800B6
:1021A0007047818941F0010181817047028BD2B271
:1021B0000283028B42EA012202837047028B02F4FF
:1021C0007F420283028B0A430283704721B1828AD5
:1021D00042F02002828204E0828A4FF6DF731A40C6
:1021E0008282704721B1828A42F01002828204E02A
:1021F000828A4FF6EF731A408282704721B1828A39
:1022000042F00802828204E0828A4FF6F7731A4095
:102210008282704721B1828942F40042828103E0C8
:102220008289C2F30E028281704721B1828A42F410
:102230000062828204E0828A4FF2FF731A40828237
:102240007047828A4FF6FB731A408282828A0A4361
:102250008282704721B1828A42F00202828204E0C7
:10226000828A4FF6FD731A40828270470246002030
:10227000B1F5007F00D100BF13880B4201D00120CF
:1022800000E00020704701F40072B2F5007F00D139
:1022900000BFCA430280704770B502460024002385
:1022A00000250020A1F510666A3E00D100BFC1F3F1
:1022B000421501F01F03012606FA03F3012D02D196
:1022C0009689334006E0022D02D1168A334001E0A0
:1022D000968A33400C12012606FA04F4168834401C
:1022E00013B10CB1012000E0002070BD10B5002238
:1022F0000023A1F510646A3C00D100BF0A1201243A
:102300009440A3B2DC43048010BD000000380140BB
:102310000044004000480040004C00400050004095
:1023200000F0DAFA482000F05DFD4FF4A060FDF700
:102330004BFF00F02EF900F0DDFD00F04DFB01F049
:1023400071FF00F006FE00F09DFD00F0AFFD00F013
:10235000BDFD01F00EFE01F050FC00F003FD02F0A7
:1023600014F90020184908604FF47A734FF4FA7298
:102370004FF00101084602F049F94FF47A735A1000
:102380000121022002F042F94FF47A735A10012120
:10239000032002F03BF94FF47A735A100121042014
:1023A00002F034F94FF47A735A100121052002F03B
:1023B0002DF94FF47A735A100121062002F026F904
:1023C00001E000F0DEFEFCE7A481214210B5002808
:1023D00031DB07282FDCB1F5FA7F2CDB40F6C41384
:1023E000994228DC142A00DA142247F230539A4228
:1023F00000DD1A4606280BD140F6C413994201DDD0
:10240000194610E0B1F5FA7F0DDA4FF4FA710AE0DF
:1024100040F69803994201DD194604E0B1F5617F69
:1024200001DA4FF46171DB4B23F81010DA4B1A809C
:102430000123DA4C237010BD70B5D848007800280D
:1024400048D00020D5490870D3480088142190FB5B
:10245000F1F0D3490880002437E0CE4830F814006A
:10246000D04931F81410884213DDCA4931F81410EC
:10247000CC4A32F81420881A02F030FACA4941F8DE
:102480002400084650F8240080F0004041F8240061
:102490000BE0C44931F81410BE4A32F81420881AEF
:1024A00002F01CFAC04941F82400BD48008802F03F
:1024B0002DFA0546BC4951F82400294602F030F9AE
:1024C000B94941F82400601CC4B2082CC5DB0120C6
:1024D000B6490870B548007860B3B1480088401E1E
:1024E000AF490880002423E0AD48008848B9A948D6
:1024F00030F81400AB4921F814000020AB490870F3
:1025000014E0A748008802F001FA0646A64850F8F1
:102510002410304602F00EFA054602F0C3F99D4938
:1025200031F8141008449F4921F81400601CC4B20B
:10253000082CD9DB70BD08B59D48C06940F0020089
:102540009B49C86142F20F709A4908804720091FD1
:10255000088098482038008840F0010095492039CB
:10256000088094482C38008840F0010091492C39AB
:1025700008801D208DF8000000208DF80100032048
:102580008DF8020001208DF803006846FDF721FE5A
:1025900008BD08B5FFF7CFFF01210820FEF7C0FBFB
:1025A0004FF49070ADF8000010208DF80300032068
:1025B0008DF8020069468048FEF7FCF801211020E2
:1025C000FEF7AEFB4FF4E050ADF8000010208DF8A0
:1025D000030003208DF8020069467848FEF7EAF808
:1025E00001212020FEF79CFB0420ADF80000102004
:1025F0008DF8030003208DF8020069467048FEF74D
:10260000D9F808BD411C6B4A1180704700B5694874
:102610001C38008810F0010F70D06A48008811281B
:102620000ED2DFE800F0A7090E171F2C34414956DF
:102630005E6C748189969B005A490888FFF7E2FF17
:1026400098E05849098840F6C412511A88B2FFF739
:10265000D9FF8FE001205C49086052494888FFF7A4
:10266000D1FF87E00020584908604E49498840F66C
:10267000C412A2EB010188B2FFF7C4FF7AE0012087
:102680005249086047498888FFF7BCFF72E0002084
:102690004E4908604349898840F6C412A2EB010103
:1026A00088B2FFF7AFFF65E00120494908603D4966
:1026B000C888FFF7A7FF5DE0002045490860394959
:1026C000C98840F6C412A2EB010188B2FFF79AFF55
:1026D00050E001203F49086032490889FFF792FF26
:1026E00048E000203B4908602E49098940F6C412A1
:1026F000A2EB010188B2FFF785FF3BE040E001203B
:102700003549086027494889FFF77CFF32E00020FF
:10271000314908602349498940F6C412A2EB0101FE
:1027200088B2FFF76FFF25E001202C4908601D49A2
:102730008889FFF767FF1DE00020284908601949D4
:10274000898940F6C412A2EB010188B2FFF75AFF53
:1027500010E01449C889FFF755FF0BE01149C989FA
:1027600040F6C412511A88B2FFF74CFF00201549F9
:10277000088000BF00BF13480088401C1149088032
:102780000C481C38008820F001000A491C390880D8
:1027900000BD00002400002036000020340000208E
:1027A0003800002014000020DC0000203A00002047
:1027B000001002402C040040000C014000100140B9
:1027C000001401403C000020A8012242AC0122423A
:1027D000B00122428881224294812142A08121427B
:1027E000704700BFFEE700BFFEE700BFFEE700BF87
:1027F000FEE7704770477047704700000CB5002037
:10280000019000906B48006840F48030694908608E
:1028100000BF6848006800F4003000900198401C38
:102820000190009818B90198B0F5A06FF1D16148F6
:10283000006810F4003F02D00120009001E0002069
:1028400000900098012842D15B48006840F01000D9
:10285000594908600846006820F0030008600846EF
:10286000006840F0020008605248406851494860E2
:102870000846406848600846406840F48060486008
:102880000846406820F47C1048600846406840F4E0
:10289000E81048600846006840F08070086000BF9B
:1028A0004448006810F0007FFAD04248406820F0A9
:1028B0000300404948600846406840F00200486014
:1028C00000BF3C48406800F00C000828F9D10CBD5E
:1028D00010B5FFF793FF10BD10B53648006840F003
:1028E00001003449086008464068344908403149CD
:1028F000486008460068324908402E49086008468A
:10290000006820F4802008600846406820F4FE003B
:1029100048604FF41F008860FFF7DAFF4FF0006057
:102920002849086010BD10B5002100200022214B6D
:102930005B6803F00C0121B1042906D0082928D1D5
:1029400007E0214B214C236027E01F4B1F4C2360E5
:1029500023E0184B5B6803F47010164B5B6803F4BC
:102960008032022303EB904022B9194B4343174CAA
:1029700023600DE00F4B5B6813F4003F04D0144B51
:102980004343124C236003E00F4B43430F4C23603F
:1029900003E00D4B0D4C236000BF00BF054B5B688F
:1029A000C3F303130B4CE15C084B1B68CB40074C93
:1029B000236010BD00100240002002400000FFF81C
:1029C000FFFFF6FE08ED00E000127A004000002054
:1029D00000093D004400002000B587B0012144F209
:1029E0000500FEF79DF94FF40070ADF814000320C8
:1029F0008DF8160018208DF8170005A9EC48FDF792
:102A0000D9FE4FF48060ADF8140048208DF817000F
:102A100005A9E748FDF7CEFE4FF4165001900020BF
:102A2000ADF80800ADF80A00ADF80C00ADF81000E4
:102A30000C20ADF80E0001A9DE48FFF7B0FA012224
:102A400040F22551DB48FFF742FB0121D948FFF74F
:102A500032FB25208DF8180001208DF81900002088
:102A60008DF81A0001208DF81B0006A8FDF7B1FBB8
:102A700007B000BD00BFCF49098811F0400FFAD060
:102A8000CC49091D088000BFCA49098811F0400FD0
:102A9000FAD0704710B50246002010E000BFC54BC9
:102AA0001B8813F0400FFAD0135CC24C241D238006
:102AB00000BFC04B1B8813F0400FFAD0401C884267
:102AC000ECD310BD70B540F22551BA48FFF7E4FBD6
:102AD00000285CD0B748FFF75FFBC5B2B648007866
:102AE000C8B9552D10D1B5480078401CB3490870BD
:102AF0000846007802280ED1002008700120AE4957
:102B00000870AF49087006E00020AB490870AC4976
:102B10000870AA490870A8480078002837D0A9484A
:102B2000A74909784554A648007802280ED1A5483F
:102B3000A3490978405CA449087008460078022837
:102B400004DA0220087000209B4908709C48007835
:102B5000401C9B490870084601789B480078801CFF
:102B6000814214D19948007870B9012097490870C2
:102B7000002405E09348005D95490855601CC4B2E7
:102B80008F4800788442F5DB00208B49087070BDC7
:102B9000FCB504460D461646022700BF00BF00BF25
:102BA00000BF55208DF800008DF801008DF80270EF
:102BB0008DF803408DF804508DF80560B81CC1B243
:102BC0006846FFF767FFFCBD8048007820B1002011
:102BD0007E490870012070470020FCE72DE9F04194
:102BE00004460F46154698466DB9002609E04FF495
:102BF000005101EB843101EB063001F02DF8701C1F
:102C0000C6B2042EF3DB4FF4005101EB843101EB2B
:102C100085104246402101F064F8681CB84211D189
:102C20006C4A4FF48071080101F035F86948075586
:102C30004FF4805001F010F8664A4FF4807108019B
:102C400001F04FF8BDE8F08110B5002404E0002049
:102C500060490855601C84B2FF2CF8DD4FF48050A9
:102C600000F0FAFF5B4A4FF48071080101F039F877
:102C700010BD2DE9F05FFFF7A7FF002870D0564880
:102C8000006808B9012000E000205349086050485E
:102C9000C778072F4BD004DC032F07D0062F5ED157
:102CA00031E0082F46D0192F59D14BE0484890F811
:102CB000049040794649897900EB012085B20024CF
:102CC0001EE004EB4400C01D414911F8008004EBF4
:102CD00044000830095C04EB440009303C4A105CB5
:102CE00001EB002086B22A4631464046FFF76EFBD4
:102CF0002B4632460121404601F088FC601C84B21C
:102D00004C45DEDB2BE0324890F804B04079304986
:102D1000897900EB01201FFA80FA00221146062073
:102D2000FFF736FF5146584600F004FE17E000F06A
:102D300036FE14E0FFF788FF002211460820FFF757
:102D400027FF0CE0224B9A7959791879DB1DFFF7A0
:102D500045FF002211461920FFF71AFF00BF00BFF0
:102D6000BDE8F09F1FB51DA103C9CDE902016A4668
:102D70000521002000F08FFF002414E002A8005D70
:102D80001DF8041088420CD000201349086000F0A0
:102D900063FF02AA0521002000F0A3FFFFF754FF04
:102DA00003E0601CC4B2052CE8DB00BF1FBD0000BF
:102DB0000008014000380140560000205500002066
:102DC000570000200002002058000020540000207E
:102DD000FC00002004030020A48121424C4F424FFC
:102DE0005400000010B504466FF00400FDF73CFAF3
:102DF000E11704EB5171C1F3C701FE4A117010468F
:102E0000007800EB4001C1EBC0104FF6FF7101EA02
:102E1000C000F949088010BD0146F74A12884A43AC
:102E20004FF0E0235A6100229A6101221A6100BF2B
:102E30004FF0E022106910F0010F02D010F4803F33
:102E4000F6D000224FF0E0231A619A6170470146E4
:102E5000E84A12784A434FF0E0235A6100229A610F
:102E600001221A6100BF4FF0E022106910F0010F3B
:102E700002D010F4803FF6D000224FF0E0231A6118
:102E80009A61704708B501210820FDF749FF4FF40A
:102E90000070ADF8000010208DF8030003208DF8BD
:102EA00002006946D548FDF785FC08BD08B501213B
:102EB0001020FDF735FF0120ADF8000048208DF807
:102EC00003006946CE48FDF775FC08BD08B5012131
:102ED0001020FDF725FF4FF40050ADF80000102042
:102EE0008DF8030003208DF802006946C448FDF701
:102EF00061FC08BD1FB501210846FDF71EFF092032
:102F0000ADF8040040F2CF20ADF800000020ADF88D
:102F10000600ADF8020069464FF08040FEF7C2F9A6
:102F2000012241218807FEF734FD01218807FEF7C1
:102F300015FD1C208DF80C0002208DF80D000320DB
:102F40008DF80E0001208DF80F0003A8FDF741F960
:102F50001FBD00B587B001214FF40470FDF7E0FEFE
:102F60004FF40040FDF743FE0820ADF804000020B8
:102F70008DF8070001A9A248FDF71CFCA148FDF748
:102F800091F9002002908DF80C008DF80D004FF49F
:102F9000602004900020059001208DF8180002A9FF
:102FA0009848FDF7A6F901219648FDF7CEF9954816
:102FB000FDF7EDF900BF9348FDF7EEF90028FAD1CF
:102FC0009048FDF7F3F900BF8E48FDF7F4F90028AB
:102FD000FAD101218B48FDF7F8F907B000BD10B513
:102FE00004460723012221468648FDF71AFA0121EB
:102FF0008448FDF7EAF900BF02218248FDF756FB3D
:103000000028F9D07F48FDF773FA10BD70B5002491
:10301000002505E00D20FFF7E2FF0444681CC5B25F
:10302000082DF7DBE40840F6AB106043840A7649CC
:103030000C8070BD7448008870477448007888B16F
:1030400073480068401C7249086002280DD30020B4
:1030500008607048006808B9012000E000206D4950
:10306000086002E000206B4908606B48007828B9CE
:10307000002066490870694908601FE066480078CA
:1030800001281BD165480068401C64490860084657
:10309000006841F28831884203D201205B49087000
:1030A0000CE05E48006842F21071884203D20020B2
:1030B0005649087002E0002058490860704710B572
:1030C00001218807FEF713FF002836D00121880769
:1030D000FEF71EFFFFF7B1FF51480068401C504942
:1030E00008600A2829D3002008604E480068401C68
:1030F0004C4908604C480088401C4B490880FFF749
:1031000099FF41F27C5188420EDA48480088401C01
:10311000464908800846008841F2883188420CDD23
:1031200001203D49087008E00020404908804048DF
:10313000007810B900203849087010BD10B5394822
:1031400000683C49096888421AD93A4800680A3040
:103150003849086038480068401C3749086008460C
:10316000007810F0010F01D1FFF766F932480068CE
:103170003221B0FBF1F201FB120008B9FFF746FF64
:1031800010BD70B5FFF7DAFFFFF773FD01F02EF900
:1031900000F057FC2948006838BB3C20FFF73CFE94
:1031A0002648006828B926480078401C2449087041
:1031B0001BE023480078142807DD00202049087010
:1031C0000021642000F0B6FB70BD00201C4908708F
:1031D0001C4800686FEA00001B49C1F8A4014FF0C9
:1031E00001014FF0640000F0A5FB0F4800882D2876
:1031F0006BDD2BE06400002066000020000C014025
:103200000010014000240140980000207A000020B6
:103210007C000020B40122426000002080000020D9
:10322000840000205C000020620000208800002054
:10323000680000208C000020900000200001224245
:1032400096000020A4812142008021420020FE49F6
:10325000088000F032FF0446FC48007801286FD156
:1032600000F063FF0546042000F088FF05422DD0E2
:103270000020F6490870F64908700120F5490870E9
:10328000F5490870F54800686FEA0000F449C1F894
:10329000A4014FF05000FFF7BFFD0020ED4908707A
:1032A0003220FFF7B9FD0120EA490870EA490870A9
:1032B0005020FFF7B1FD0020E6490870E848D0F83B
:1032C000A401C043E649C1F8A40120E354B10120A0
:1032D00000F02BFF30B9E14800686FEA0000E049D8
:1032E000C1F8A401A4F104000D2828D2DFE800F001
:1032F000F149296907ABF08AEFCBEEF2EC00D9482F
:103300008089143081B232220620FFF75FF8D64858
:1033100080890A3000B2D44988810846B0F90C008F
:1033200040F6C411884202DD0846CF498881CE4864
:10333000808982B232230121062001F067F9CAE1B7
:10334000CCE1C8488089143881B232220620FFF7C8
:103350003DF8C54880890A3800B2C34988810846CB
:10336000B0F90C00B0F5FA7F02DA4FF4FA708881F8
:10337000BD48808982B232230121062001F046F93E
:10338000A9E1B8484089143881B232220520FFF7FC
:103390001DF8B54840890A3800B2B349488108464B
:1033A000B0F90A00B0F5617F02DA4FF4617048812C
:1033B000AD48408982B232230121052001F026F96F
:1033C00089E1A8484089143081B232220520FEF7F5
:1033D000FDFFA54840890A3000B2A349488108464C
:1033E000B0F90A0040F69801884202DD08469E497D
:1033F00048819D48408982B232230121052001F095
:1034000005F968E197488088143081B232220220A1
:10341000FEF7DCFF944880880A3000B29249888029
:103420000846B0F9040040F69801884202DD0846DB
:103430008D4988808C48808882B232230121022005
:1034400001F0E4F847E187488088143881B23222DD
:103450000220FEF7BBFF844880880A3800B2824908
:1034600088800846B0F90400B0F5617F02DA4FF4B5
:10347000617088807C48808882B2322301210220DA
:1034800001F0C4F827E177480089143081B2322274
:103490000420FEF79BFF744800890A3000B272498D
:1034A00008810846B0F9080040F69801884202DD1C
:1034B00008466D4908816C48008982B23223012197
:1034C000042001F0A3F806E145E003E022E062E019
:1034D00082E0A1E063480089143881B232220420DE
:1034E000FEF774FF604800890A3800B25E4908811F
:1034F0000846B0F90800B0F5617F02DA4FF4617058
:1035000008815948008982B232230121042001F048
:103510007DF8E0E05348C088143081B232220320A5
:10352000FEF754FF5048C0880A3000B24E49C880A8
:103530000846B0F9060040F69801884202DD0846C8
:103540004949C8804848C08882B2322301210320FB
:1035500001F05CF8BFE04348C088143881B23222E1
:103560000320FEF733FF4048C0880A3800B23E49C6
:10357000C8800846B0F90600B0F5617F02DA4FF462
:103580006170C8803848C08882B23223012103208C
:1035900001F03CF89FE033484088143081B2322279
:1035A0000120FEF713FF304840880A3000B22E4950
:1035B00048800846B0F9020040F69801884202DDD2
:1035C0000846294948802848408882B23223012190
:1035D000084601F01BF87EE022484088143881B28A
:1035E00032220120FEF7F2FE1F4840880A3800B25E
:1035F0001D4948800846B0F90200B0F5617F02DA43
:103600004FF4617048801848408882B2322301210B
:10361000084600F0FBFF5EE04FF47A7240F2DC51A6
:103620000120FEF7D3FE4FF47A7240F2DC51022003
:10363000FEF7CCFE4FF47A7240F2DC510320FEF725
:10364000C5FE4FF47A7211E0620000209500002060
:10365000940000206800002060000020A481214226
:1036600000802142240000206A00002040F2DC514A
:103670000420FEF7ABFE4FF47A7240F2DC510520D5
:10368000FEF7A4FE4FF47A7240F2DC510620FEF7FA
:103690009DFE01209F49087018E04FF4FA709E4982
:1036A0009C4A127821F8120008469A49097830F8A5
:1036B000110082B24FF47A7301219648007800F02D
:1036C000A5FF94480078401C924908709148007802
:1036D0000728E2DB00BF00BF002418E1012000F052
:1036E00024FDE8B3042000F049FDC8B301208B4954
:1036F000087000F054F90020894908704FF47A727C
:1037000040F2DC510120FEF761FE4FF47A7240F284
:10371000DC510220FEF75AFE4FF47A7240F2DC517F
:103720000320FEF753FE4FF47A7240F2DC5104207E
:10373000FEF74CFE4FF47A7240F2DC510520FEF7A2
:1037400045FE4FF47A7240F2DC510620FEF73EFE51
:10375000012074490870744908707448006800E0DA
:1037600021E06FEA00007249C1F8A4014FF0500057
:10377000FFF752FB00206B4908703220FFF74CFB2B
:10378000012068490870684908705020FFF744FB21
:103790000020644908706648D0F8A401C043644919
:1037A000C1F8A401B3E06CB15D48007850B90120C4
:1037B00000F0BBFC30B95D4800686FEA00005C496E
:1037C000C1F8A401112C10D2DFE804F0099F9F9FDB
:1037D000101B3C26318994737E4768525D00504827
:1037E000007810B100204E4908708EE04C480078F7
:1037F00018B90121002000F09DF801204849087007
:1038000083E04748007818B90121084600F092F893
:1038100001204349087078E04148007818B9012137
:10382000022000F087F801203D4908706DE03C4817
:10383000007818B90121032000F07CF801203849F4
:10384000087062E03648007818B90121042000F0C1
:1038500071F801203249087057E03148007818B9F2
:103860000121052000F066F801202D4908704CE088
:103870002B48007818B90121062000F05BF80120E0
:103880002749087041E02648007818B901210B202B
:1038900000F050F801202249087036E020480078F6
:1038A00018B901210C2000F045F801201C490870CE
:1038B0002BE01B48007818B901210D2000F03AF8E0
:1038C00001201749087020E01548007818B9012137
:1038D0000E2000F02FF801201149087015E0104863
:1038E000007818B901210F2000F024F801200C49BC
:1038F00008700AE00A48007818B90121102000F089
:1039000019F801200649087000BF00BF002400BF5D
:103910005AE400009A0000206A0000209500002070
:10392000940000206800002060000020A481214253
:103930000080214238B504460D4604F580506A46A1
:10394000012100F0A8F99DF80000002826DD9DF86F
:1039500000006849087068480078A04209D054B94E
:1039600000206649087066490860012065490870B2
:1039700001E0654805606148007878B95E480470E8
:10398000614805600020614908705D4908600120B8
:103990005A4908705E4800685E49086038BD0020DA
:1039A00056490870564908600120564908700020A1
:1039B0005649087070472DE9F04790B005460E460D
:1039C00000244FF4005101EB853101EB86106A466B
:1039D000402100F060F99DF800909DF801009DF8ED
:1039E000021000EB0127B9F1080F05DDFFF7D7FF43
:1039F000002010B0BDE8F08700241EE004EB440076
:103A0000C01C1DF800A004EB4400001D1DF80010B0
:103A100004EB4400401D1DF8000001EB00201FFADC
:103A200080F8BAB241465046FEF7D0FCBBB24246DF
:103A30000121504600F0EAFD641C4C45DED3B8B2CB
:103A4000D7E710B52D480078002845D02D480078DC
:103A500001280ED100202B4908702C4801782648F7
:103A60000078FFF7A8FF2B49096808442949086036
:103A70003EE02748006827490968884238D301207A
:103A80002049087021480078401CC0B21F490870C6
:103A90001849097888422BDB00201C4908701A4815
:103AA000006828B316480068401C1549086016498C
:103AB000096888421CD3002211460720FFF768F8E6
:103AC00000200E4908700C480078642810D10121AC
:103AD0006520FFF72FFF0BE000200C490870084914
:103AE0000860012007490870094800680949086012
:103AF00010BD0000AD0000209D0000209C000020B3
:103B0000A4000020AC000020A0000020AE00002097
:103B10005C000020A800002070B50546002405E0E8
:103B2000601CC4B2C82C01DD002070BD0221814898
:103B3000FDF7ADFA0028F3D029467E48FDF754FA88
:103B4000002400BF01217B48FDF7A1FA0028F9D02D
:103B5000601CC4B2C82C01DD0020E6E77548FDF703
:103B600045FAC0B2E1E708B510217348FCF7CDFE75
:103B700001210420FDF7D4F81020ADF800008DF8E5
:103B8000030003208DF8020069466B48FCF712FE23
:103B9000012141F20400FDF7C3F8E020ADF8000078
:103BA00018208DF8030003208DF802006946624852
:103BB000FCF700FEE0216048FCF7A7FE00205F490B
:103BC00008804FF482704880002088800220C880DE
:103BD0000120088140024881082088810020C88196
:103BE000072008825348FDF729F901215148FDF7C4
:103BF000CAF9FF20FFF790FF08BD10B5FFF7B3FF2C
:103C00009620FFF709F910BD10B5002400204C499B
:103C100008604FF00500FFF77FFFFF20FFF77CFFF4
:103C2000044601204749C1F89001204610BD10B557
:103C300000BFFFF7E9FF10F0010FFAD110BD10B57A
:103C400000203F4908604FF00600FFF765FF0120A4
:103C50003C49C1F8900110BD10B50446FFF7EFFFD5
:103C6000FFF7E5FF0020364908604FF02000FFF71E
:103C700053FFC4F30740FFF74FFFC4F30720FFF7DC
:103C80004BFFE0B2FFF748FF01202E49C1F8900139
:103C9000FFF7CDFF10BD2DE9F04104460E46174653
:103CA0000020274908604FF00300FFF735FFC4F3F9
:103CB0000740FFF731FFC4F30720FFF72DFFE0B205
:103CC000FFF72AFF002505E0FF20FFF725FF7855C5
:103CD000681C85B2B542F7D3012019490860BDE8D8
:103CE000F0812DE9F04104460E461746FFF7A7FF85
:103CF0000020134908604FF00200FFF70DFFC4F3E6
:103D00000740FFF709FFC4F30720FFF705FFE0B204
:103D1000FFF702FF002504E0785DFFF7FDFE681C59
:103D200085B2B542F8D3012005490860FFF77FFF4F
:103D3000BDE8F0810030014000080140040400208B
:103D4000900121420000214210B504462046FFF7B1
:103D50007EF810BD38B50446012000900020F949D6
:103D60004870012000902DE0BDF80000204203D0F3
:103D70000120F549086002E00020F34908604FF097
:103D80000A00FFF7E1FF0020F04908604FF028002B
:103D9000FFF7DAFF0120EE49C1F89401ED48006811
:103DA00030B1E8484078BDF800100843E549487054
:103DB0000A20FFF7C9FFBDF800004FF6FF7101EAC6
:103DC00040000090BDF80000FF28CDDD38BD10B5E3
:103DD0000020E14908604FF03200FFF7B5FF0120F5
:103DE000FFF7B8FF4320FFF7B5FF0020FFF7B2FF52
:103DF0000020FFF7AFFF5A20FFF7ACFF5A20FFF774
:103E0000A9FF5A20FFF7A6FF5A20FFF7A3FF5A2069
:103E1000FFF7A0FF0120D149C1F880013220FFF750
:103E200093FF10BD10B50020CB4908604FF0320061
:103E3000FFF78AFF0120FFF78DFF4D20FFF78AFF74
:103E40000020FFF787FF0020FFF784FF0120FFF726
:103E500081FF0120C149C1F880013220FFF774FFC2
:103E600010BD10B50020BC4908604FF03200FFF7CC
:103E70006BFF0120FFF76EFF4420FFF76BFF002070
:103E8000FFF768FF0120FFF765FF0320FFF762FFE0
:103E90000020FFF75FFF0020FFF75CFF0020FFF727
:103EA00059FF0020FFF756FF0120AC49C1F88001FF
:103EB0003220FFF749FF10BD10B50020A649086069
:103EC0004FF03200FFF740FF0120FFF743FF432090
:103ED000FFF740FF0020FFF73DFF0120FFF73AFF0B
:103EE0000020FFF737FF0020FFF734FF0020FFF727
:103EF00031FF0020FFF72EFF0020FFF72BFF0120EE
:103F00009649C1F880013220FFF71EFF10BD10B5A1
:103F10000020914908604FF03200FFF715FF0120A3
:103F2000FFF718FF4220FFF715FF0020FFF712FFF1
:103F30000020FFF70FFF0020FFF70CFF012087494B
:103F4000C1F880013220FFF7FFFE10BD10B56420DC
:103F5000FEF762FFFFF7DBFFFFF7D9FFFFF7D7FFA1
:103F6000FFF7AAFFFFF77DFFFFF75CFFFFF72FFFCB
:103F700010BD08B501210820FCF7D2FE4FF4805097
:103F8000ADF8000048208DF8030069467448FCF73E
:103F900011FC01210820FCF7C3FE0320ADF800004E
:103FA00010208DF8030003208DF8020069466C484C
:103FB000FCF700FC01211020FCF7B2FE2020ADF838
:103FC000000010208DF8030003208DF802006946E0
:103FD0006448FCF7EFFBFFF7B9FF08BD10B5002000
:103FE0005D49086060490878FFF7B4FE5E4948788B
:103FF000FFF7B0FE01205949C1F8800151484078CF
:10400000732801D1002010BD0120FCE71CB5002061
:10401000514908604FF00A00FFF796FE52490878B0
:10402000FFF798FE50494878FFF794FE0220019070
:1040300031E00120009022E00020444908604FF068
:104040003200FFF781FE01204149C1F89401414847
:10405000006850B13B489DF80410405CBDF800106A
:10406000084338499DF8042088541420FFF76CFE5B
:10407000BDF800004FF6FF7101EA40000090BDF866
:104080000000FF28D8DD2820FFF75EFE9DF8040021
:10409000401CC0B201909DF804000928C9DB012032
:1040A0002D4908601CBD002004E00021254A115460
:1040B000411CC8B20928F8DB704710B5FFF7F3FFC1
:1040C000FFF7A4FF29480088294908801D48C078C7
:1040D0001C49097940EA01202449088000240FE0A6
:1040E000244810F81400401E012101FA00F01F4975
:1040F0000988084202D1601CC0B210BD601CC4B265
:10410000102CEDDB0020F8E70146481E012282401A
:1041100091B217480088154A12885040084000287C
:1041200001DD012070470020FCE70146481E012206
:10413000824091B20D48008821EA000000281BDD72
:1041400001207047160400208481214294012242FC
:1041500000002242308121428081214200802142A0
:10416000000C014000100140B0000020D4000020ED
:10417000D2000020B20000200020704700B50346A6
:104180001846FFF7C1FF28B11846FFF7CEFF08B168
:10419000012000BD0020FCE700B503461846FFF7EC
:1041A000B3FF28B11846FFF7C0FF08B9012000BDD2
:1041B0000020FCE701461848405C704770B5054692
:1041C0000C460020154908604FF03200FFF7BCFD97
:1041D0000120FFF7BFFD4220FFF7BCFD0020FFF7E5
:1041E000B9FD2846FFF7B6FD2046FFF7B3FD0020D6
:1041F000FFF7B0FD0020FFF7ADFD0020FFF7AAFD9F
:104200000020FFF7A7FD01200549C1F880013220F9
:10421000FFF79AFD70BD0000160400208081214246
:104220000080214200B587B001218804FCF785FD9C
:1042300001210920FCF774FD4FF48060ADF81400F3
:1042400003208DF8160018208DF8170005A99E4848
:10425000FCF7B0FA4FF40060ADF8140048208DF878
:10426000170005A99848FCF7A5FA4FF416500190DD
:104270000020ADF80800ADF80A00ADF80C00ADF86C
:1042800010000C20ADF80E0001A99048FDF787FE44
:10429000012240F225518D48FDF719FF01218B487D
:1042A000FDF709FF27208DF8180001208DF819006F
:1042B00002208DF81A0001208DF81B0006A8FBF7DC
:1042C00088FF07B000BD10B540F225517F48FDF7CB
:1042D000E3FF00284CD07D48FDF75EFFC4B27C4868
:1042E0000078C8B9552C10D17A480078401C79491B
:1042F00008700846007802280ED1002008700120BE
:10430000734908707449087006E00020704908700D
:10431000714908706F4908706D48007840B36F4864
:104320006D49097844546C48007802280ED16B48D6
:1043300069490978405C6A49087008460078022893
:1043400004DA022008700020614908706248007891
:10435000401C614908700846017861480078801C5B
:10436000814205D101205F4908700020584908703A
:1043700010BD10B50246002010E000BF534B1B8853
:1043800013F0400FFAD0135C504C241D238000BF63
:104390004E4B1B8813F0400FFAD0401C8842ECD3E0
:1043A00010BD5048007820B100204E49087001200F
:1043B00070470020FCE7FCB504460D461646022770
:1043C00000BF00BF00BF00BF55208DF800008DF872
:1043D00001008DF802708DF803408DF804508DF8BF
:1043E0000560B91C6846FFF7C4FFFCBD2DE9F05F0E
:1043F000FFF7D7FF002865D03B48006808B90120C7
:1044000000E00020384908603448C578072D40D0C6
:1044100004DC032D07D0062D53D12BE0082D3BD013
:10442000192D4ED140E02D48077940792B498979E3
:1044300000EB01201FFA80F8002418E004EB440090
:10444000C01D26490E5C04EB44000830095C04EBF7
:1044500044000930214A105C01EB00201FFA80F96A
:10446000424649463046FDF7B1FF601C84B2BC426B
:10447000E4DB26E0194890F804B0407917498979BF
:1044800000EB01201FFA80FA51465846FFF752FA16
:1044900017E0FFF784FA14E0FEF7D6FB002211467E
:1044A0000820FFF788FF0CE00C4B9A7959791879AE
:1044B000DB1DFEF793FB002211461920FFF77BFF5F
:1044C00000BF00BFBDE8F09F000C01400048004065
:1044D000D8000020D7000020D90000201F040020B1
:1044E000DA000020D6000020A481214200B587B068
:1044F00001214804FCF721FC01210520FCF710FCF8
:104500000420ADF8140003208DF8160018208DF853
:10451000170005A96148FCF74DF90820ADF8140013
:1045200048208DF8170005A95C48FCF743F94FF4C3
:10453000E13001900020ADF80800ADF80A00ADF8B8
:104540000C00ADF810000C20ADF80E0001A9544885
:10455000FDF725FD012240F225515148FDF7B7FD39
:1045600001214F48FDF7A7FD27208DF818000120F5
:104570008DF8190002208DF81A0001208DF81B001B
:1045800006A8FBF726FE07B000BD08B5FFF7AEFF93
:1045900001210420FCF7C4FB0320ADF8000010202B
:1045A0008DF8030003208DF8020069463B48FCF7B4
:1045B00001F900203B4908604FF001003A49C1F879
:1045C000840108BD10B50246002010E000BF344B46
:1045D0001B8813F0400FFAD0135C314C241D23804C
:1045E00000BF2F4B1B8813F0400FFAD0401C8842AD
:1045F000ECD310BD10B540F225512948FDF74CFE13
:1046000018B12748FDF7C8FDC4B210BD2DE9F04729
:1046100085B081460E461746984604254FF0000A9D
:10462000012E01D1072500BF00BF55208DF80000E5
:104630008DF801008DF802908DF803508DF804601C
:10464000F8B28DF8050038128DF8060008F0FF006A
:104650008DF807004FEA28208DF80800022403E0B7
:104660001DF804008244641C681C8442F8D96FEA77
:104670000A00C1B2A81C0DF800100020094908600A
:104680004FF001000849C1F8840105F103016846B3
:10469000FFF798FF05B0BDE8F08700000008014073
:1046A00000440040800121420000214270477047D1
:1046B0007047754600F028F8AE4605006946534637
:1046C00020F00700854618B020B5FBF76BFDBDE86C
:1046D00020404FF000064FF000074FF000084FF069
:1046E000000B21F00701AC46ACE8C009ACE8C009FA
:1046F000ACE8C009ACE8C0098D4670470446AFF38A
:1047000000802046FBF739FD004870472405002053
:1047100001491820ABBEFEE72600020070470000EA
:104720004FF47F0C1CEAD0121EBF1CEAD11392EA90
:104730000C0F93EA0C0F00F0858090EA010F48BF40
:1047400042F4807240F4000C41F400002CF07F41F0
:1047500020F07F4000B58142A2EB03020FF2081C5B
:10476000ACEB504EC0F100009EF800E04FEA4E0E58
:1047700000FB0EFC38BF49004FEA2C1C02F5FA0280
:104780000CFB0EF34FEACE1E4FEA112C4FEAC1216B
:104790000EEB635E42EB22420EFB0CFC4FEA1C5315
:1047A00000FB03114FEA112C4FEA01310EFB0CFC08
:1047B0004FEADC4C00FB0C11C14228BF09184CEB3E
:1047C00003335DF804EB10EB410143EBC250B2F54B
:1047D0007C0F38BF704729D512F0F00F1CBF00F1D5
:1047E000C04000F000407047008182838485868746
:1047F00088898B8C8D8E8F919293959697999A9CA0
:104800009D9FA0A2A3A5A7A8AAACAEB0B2B3B5B70E
:10481000B9BCBEC0C2C5C7C9CCCED1D4D7D9DCDFE4
:10482000E2E6E9ECF0F3F7FAFE0000004FEA400C94
:104830000CF1807CBCF17E4F28BF7047B0F1C040C6
:1048400000F03FB990EA010F0CEAD11348BF42F4DF
:104850008072624538BF634507D213F47F0F16D0CC
:1048600080EA010000F00040704710B500F0E3F866
:10487000097EFC3E00F005B880EA010000F000402F
:10488000704780EA010000F0004000F01AB912F40D
:104890007F0F04BF0248704780EA010000F011B9A1
:1048A0000000C07F41000B0ED3F19E0208D950F4E6
:1048B00000034FEA032323FA02F048BF4042704747
:1048C00010B500F0B8F800BF49922480002070476E
:1048D0006FF0004282EA20007047000010F00041B3
:1048E00048BF4042B0FA80F310FA03F2C3F19D03CF
:1048F0000BD051EAC35101EB1220530638BF704769
:1049000000F1010008BF20F001007047B0FA80F309
:1049100010FA03F2C3F19D030AD0D90501EB12206E
:10492000530638BF704700F1010008BF20F00100B6
:10493000704700004FF47F0C1CEAD0121EBF1CEA27
:10494000D11392EA0C0F93EA0C0F00F0478090EA23
:10495000010F48BF42F480724FF0004C4CEA002037
:104960004CEA012102EB0302A0FB0113A2F50002B5
:10497000002918BF43F001035B0028BF4FEA33034F
:1049800042EB22425FEA132C4CEBC2502EBFBCEB31
:10499000436FB2F57C0F70474FEA036CBCF1004FD8
:1049A00008BF20F00100B2F57C0F38BF70470BD56F
:1049B00082F0FF0212F5803FC8BF704700F1C0408F
:1049C000D8BF00F00040704700F5000C5FEA4C0CC7
:1049D00048BF7047B0F1C04000F073B890EA010FD3
:1049E0000CEAD11348BF42F48072624538BF634578
:1049F00004D280EA010000F00040704710B500F0DA
:104A00001AF800BF8900013E00F007B800F009B8AD
:104A10005FEA410C5FEA1C6C08D080EA010000F0FC
:104A200050B85FEA400C5FEA1C6CF6D14FF00040D2
:104A3000A0F5800070470EF1020E2EF0030E5EF816
:104A4000044B244204D44FEA4102B2F17F4F11D803
:104A50004FEA4003B3F17F4F0CD80ED14FEAD07C20
:104A6000B2F17F4F0CEB4C0C0CF1020C08BF4CEB7D
:104A7000D17C04E04FF0080C01E04FEAD17C0CEB54
:104A80004C0324FA03F404F00704B4F1040C06D236
:104A90000EEB840CBDE810404CF0010C6047DFE8E1
:104AA0000CF0070802024FF00040A0F5800010BD96
:104AB0000846420018BFD2F1807288BF00F0004063
:104AC00010BDFF2141EAD050C0057047EC4A0008F4
:104AD00000000020DC00000028010008C84B00088E
:104AE000DC000020AC0A00004401000800000000C7
:104AF0000102030401020304060708090204060870
:104B0000DC05DC05DC05DC05DC05DC05DC05DC059D
:104B1000DC05DC05DC05DC05DC05DC05DC05DC058D
:104B20000000D007000000000100000000A24A04BD
:104B3000000000000000000001020304060708094D
:104B40000000000002000000000000000000000063
:104B5000000000000000F401F401F401F401F4018C
:104B6000F401F401F4010000000000000000000066
:104B700000000000000000000A000000000000002B
:104B80000000000000000000000000000100000024
:104B900000000000000000000100000001420100D0
:104BA00002000300040005000600070008000900D9
:104BB0000A000B000C000D000E000F001000FFFF9C
:084BC0000000000000000200EB
:04000005080000ED02
:00000001FF
